:020000002129B4
:10000800FF00030E8301AA000A08AB008A017008EA
:10001800A1007108A0000B1D1828F8308100A20A61
:100028000319A30AFB308B050C1D41282508031969
:100038002A282708F000F101700896002608950084
:10004800A501093097008F018E013F282608403C02
:10005800F3002708031C013E9C3CF4007408F000E0
:10006800F101700896007308950008309700013078
:10007800A5008F018E01FB308C050C1C4528FE3035
:100088008C052108F0002008F1002B088A002A0EB0
:080098008300FF0E7F0E09003A
:0E00A0008312031329088A0028088200080032
:1000AE0050208A110A128000840AA80A0319A90A8C
:0800BE00F003031D57280800A0
:1000C600F030831203136A0588000810881008159B
:1000D6008230FC00DD30FD00FD0B6F28FC0B6F2825
:1000E6000000000008110230FB000430FC00BA30AA
:1000F600FD00FD0B7C28FC0B7C28FB0B7C280000FC
:100106006A08F000F00D7010F00D7010F00D701010
:10011600F00D7010F0307005880008108810081572
:100126008230FC00DD30FD00FD0B9728FC0B972884
:100136000000000008110230FB000430FC00BA3059
:10014600FD00FD0BA428FC0BA428FB0BA428000033
:0201560008009F
:100158008316031398169030831298008316871716
:10016800071383128C1EBB281A08F000B528080054
:0E0178000030831203138C1A0130F0000800CF
:10018600F030831203136A058800081488100815D6
:100196008230FC00DD30FD00FD0BCF28FC0BCF28A4
:1001A6000000000008110230FB000430FC00BA30E9
:1001B600FD00FD0BDC28FC0BDC28FB0BDC2800001B
:1001C6006A08F000F00D7010F00D7010F00D701050
:1001D600F00D7010F03070058800081488100815AE
:1001E6008230FC00DD30FD00FD0BF728FC0BF72804
:1001F6000000000008111A30FC00F830FD00FD0B6D
:0A0206000229FC0B02290000080089
:1002100083120313A201A3016B082302031D1229F9
:0C0220006A082202031815290C290800A6
:10022C00831203131A08F100981C1E2918121816B1
:06023C007108F00008004B
:1002420083120313A201A3014130B1006330B20053
:100252006330B3006530B4007330B5007330B6005C
:100262002030B7004430B8006530B9006E30BA00B3
:100272006930BB006530BC006430BD002130BE0077
:100282002130BF00C0014130C1006330C200633081
:10029200C3006530C4007330C5007330C60020301F
:1002A200C7004730C8007230C9006130CA006E30E2
:1002B200CB007430CC006530CD006430CE002130EC
:1002C200CF002130D000D1015730D2006530D300A9
:1002D2006C30D4006330D5006F30D6006D30D7005B
:1002E2006530D8002130D900DA015430DB006830A3
:1002F200DC007230DD006530DE006530DF0020306A
:10030200E0004630E1006130E2006930E3006C3029
:10031200E4006530E5006430E600E7014130831611
:10032200A0007430A1007430A2006530A3006D30CB
:10033200A4007030A5007430A6007330A7002130ED
:10034200A800A9018312E801E901023083168600A0
:1003520083128601803083168700831287018E0103
:100362008F010130A5000830970087308316810085
:10037200013083129000A0308B0483160C150730D5
:1003820083129600D03095008316880102308312C2
:10039200EA0063202830EA0063200E30EA0063207E
:1003A2000130EA0063208030EA0063203330831694
:1003B20099001815AC206430EA000030EB000821E7
:1003C2008614E530A6000B30A70000308605803089
:1003D20087050608F1007108003A031DAF2A0615C9
:1003E2000130EA006320AE012E08523E840000086C
:1003F200003A0319042A2E08523E84000008EA003B
:10040200C320AE0AF529BC207008031D092A042A5C
:10041200BC2070080319AC2A16217008A4007008C9
:10042200313A031D3E2A86150130EA006320AD01F0
:100432002D08413E84000008003A0319282A2D089D
:10044200413E84000008EA00C320AD0A192A8D301B
:10045200A6000430A7002830EA002330EB00082170
:10046200E530A6000B30A7000130EA006320C4305B
:10047200EA000930EB000821AC2A2408303A031DB7
:10048200AC2AE80A0319E90A00308605861601300B
:10049200EA006320AC012C08313E84000008003AD7
:1004A20003195B2A2C08313E84000008EA00C320AD
:1004B200AC0A4C2AA030EA000F30EB0008210130D0
:1004C200EA00632000306906031D692A03306806CA
:1004D200031DA32A0030860530308604D030EA009E
:1004E2000730EB000821E801E901AF012F085B3E6C
:1004F20084000008003A0319862A2F085B3E840014
:100502000008EA00C320AF0A772AC030EA0063205D
:10051200B0013008A03E84000008003A0319992A6D
:100522003008A03E84000008EA00C320B00A8A2AEC
:10053200C430EA000930EB00082120308605013082
:10054200EA006320D030EA000730EB000821E530F2
:10055200A6000B30A70000308605B12A00308605C0
:04056200E629B22AAA
:02400E004A2F37
:00000001FF
